:100000000C9438010C9455010C9455010C94550135
:100010000C9455010C9455010C94C3080C94550193
:100020000C9455010C9455010C9455010C945501F8
:100030000C9455010C9455010C9455010C945501E8
:100040000C9455010C9455010C9455010C945501D8
:100050000C9455010C9455010C9455010C945501C8
:100060000C9455010C9455010C9455010C945501B8
:100070000C9455010C9455010C945501036EDB361C
:100080003D9A9999993DABAAAA2A3E000000803F6B
:10009000084AD73B3BCE016E84BCBFFDC12F3D6CEF
:1000A00074319ABD56833DDA3D00C77F11BED9E455
:1000B000BB4C3E916BAAAABE000000803F072C7A81
:1000C000A5BA6CC590DA3B9365FC8BBC53F810FD68
:1000D0003C5692834DBD879D3AB63DCBC9BF5BBEB2
:1000E00073DA0FC93F05A84CCDB2D44EB93836A942
:1000F000020C50B9918688083CA6AAAA2ABE000024
:1001000000803F0664EC1B3C04BC163E3BE5B93C5A
:10011000C93C37C29E5A3D660498083EEA69AAAABD
:100120003E000000803F6E616E00696E6600004018
:100130007A10F35A00A0724E18090010A5D4E800F6
:1001400000E87648170000E40B54020000CA9A3B0E
:10015000000000E1F5050000809698000000404294
:100160000F000000A0860100000010270000000022
:10017000E803000000006400000000000A00000026
:1001800000000100000000002C76D888DC674F08D2
:1001900023DFC1DFAE59E1B1B796E5E3E453C63AD8
:1001A000E651997696E8E6C28426EB898C9B62ED4F
:1001B000407C6FFCEFBC9C9F40F2BAA56FA5F49009
:1001C000055A2AF75C936B6CF9676DC11BFCE0E480
:1001D0000D47FEF520E6B500D0ED902E03009435D6
:1001E00077050080841E080000204E0A000000C829
:1001F0000C333333330F986E12831141EF8D21147A
:10020000893BE65516CFFEE6DB18D1844B381BF749
:100210007C1D901DA4BBE424203284725E228100E8
:10022000C9F124ECA1E53D276364696E6F707375B5
:1002300078585B004E414E494E495459494E46CD7F
:10024000CCCC3D0AD7233C17B7D13877CC2B32958D
:1002500095E6241FB14F0A000020410000C842006B
:10026000401C4620BCBE4CCA1B0E5AAEC59D740035
:1002700011241FBECFEFCDBFDFE3DEBF1CE3A0E044
:10028000BCE3E3E4F2E302C005900D92A832B107AB
:10029000D9F72CE3A8E2BCE301C01D92A233B20758
:1002A000E1F70E946C080C94F0180C940000CF93B6
:1002B000DF93CDB7DEB72E97CDBFDEBF19821A828E
:1002C0001B821C821D821E821F82188619861A8636
:1002D0001B861C861D861E8664EE71EB0E945C13D5
:1002E0009E01235F3F4F3F932F93225031093F934D
:1002F0002F93225031093F932F93225031093F937E
:100300002F93225031093F932F93225031093F936D
:100310002F93225031093F932F9326EE31EB3F93D9
:100320002F939F938F930E94ED1389819A81E0E030
:10033000FCE3818792878B8183878D8184878F817E
:100340008587898586878B8587878D85808B64EEF9
:1003500071EB80E090E00E945C13CDBFDEBF0097A0
:1003600021F00E945B128093083C64EE71EB80E008
:1003700090E00E945C13009751F00E945712609326
:10038000003C7093013C8093023C9093033C64EEEC
:1003900071EB80E090E00E945C13009751F00E94A6
:1003A00057126093043C7093053C8093063C9093F5
:1003B000073C2E96CDBFDEBFDF91CF9108950F93FE
:1003C0001F93CF93DF93CDB7DEB7A897CDBFDEBF26
:1003D000FE01319688E2DF011D928A95E9F710E06F
:1003E00000E001C011E00E94C109113079F48E33A0
:1003F00029F4CE0101960E9457010BC0E1E0F0E024
:10040000EC0FFD1FE00FF11D80830F5F8C3359F758
:10041000E9CFA896CDBFDEBFDF91CF911F910F919D
:100420000895CF92DF92EF92FF920F931F93CF9395
:10043000DF93EB018A019C01220F331F220F331F30
:10044000820F931F9C01992314F42D5F3F4F359524
:10045000279535952795C90104960F2EF7E0EF2EC5
:10046000F12CF02DB7010E94AE11EFE1F0E06F0129
:10047000C81AD90AC9010196B7010E94AE11E81B3A
:10048000F90BCE010497069768F0C330D10519F433
:100490000C151D054CF42A9749F40E171F0744F05C
:1004A00080E007C081E005C081E003C080E001C0BA
:1004B00081E0DF91CF911F910F91FF90EF90DF903E
:1004C000CF9008952F923F924F925F926F927F92BA
:1004D0008F929F92AF92BF92CF92DF92EF92FF9254
:1004E0000F931F93CF93DF9300D000D0CDB7DEB72B
:1004F000FC0169837A834A0159016330710534F440
:1005000031979B01245F3F4F29833A83CF0164E6F3
:1005100070E00E94AE1182E090E01C01261A370ABA
:10052000CF0160E971E00E94AE11260E371EE4593A
:10053000FD4EBF01FF0F880B990B0E94430B20E07B
:1005400030EA46EB53E40E94460D0E947E0B2B01DD
:100550003C0189819A81019689839A83BC01990F14
:10056000880B990B0E94430B21E03DEC44EF51E4D2
:100570000E94460D0E947E0B9B01AC01C301B2019B
:100580000E94CC092B013C01B401990C880B990BFA
:100590000E94430BA30192010E94CC092B013C0154
:1005A000B101330C880B990B0E94430BA3019201FC
:1005B0000E94CC0920E030E94EEB54E40E94CB09C4
:1005C0002B013C01B801110F880B990B0E94430BC2
:1005D00020E030E040E752E40E94CF0A69837A834A
:1005E0008B839C83B501BB0C880B990B0E94430B3A
:1005F00029813A814B815C810E94CC094B015C01CD
:10060000B701FF0C880B990B0E94430B20E030E0F0
:1006100041E655E40E94CF0A9B01AC01C501B4013B
:100620000E94CC094B015C01B601DD0C880B990BD3
:1006300020EA3CE840E050E00E94C211CA01B90142
:100640000E94430BA50194010E94CC0920E030E0F8
:1006500040EC51E40E94CF0A9B01AC01C301B201FE
:100660000E94CC092496CDBFDEBFDF91CF911F91B0
:100670000F91FF90EF90DF90CF90BF90AF909F9041
:100680008F907F906F905F904F903F902F90089544
:10069000CF92DF92EF92FF926B017C0128E83AE261
:1006A00041E259E30E94460D9B01AC016DE07FE9F8
:1006B0008CE097E40E94CB099B01AC01C701B60115
:1006C0000E94460D2AEB33EC42EB53E40E94CC0926
:1006D00020E030E044EB53E40E94A00BFF90EF9049
:1006E000DF90CF9008954F925F926F927F928F929A
:1006F0009F92AF92BF92CF92DF92EF92FF926B01E7
:100700007C0149015A012BE831EE4AE657E3C50165
:10071000B4010E94460D2DEE37ED4DE95BE30E94DA
:10072000CC099B01AC01C501B4010E94460D9B019F
:10073000AC016EEA71E185EF9FE30E94CB092B01CA
:100740003C0125E33AEF4EE85CE3C701B6010E94A5
:10075000460D0E94B30D9B01AC01C301B2010E9482
:10076000460D2B013C0126EF3FEC43ED58E3C5015C
:10077000B4010E94460D9B01AC016CE578EC83EA64
:100780009CE30E94CB094B015C0125E33AEF4EE06C
:100790005DE3C701B6010E94460D0E94B30D9B01A7
:1007A000AC01C501B4010E94460D9B01AC01C3011F
:1007B000B2010E94CC094B015C0120E537E746E518
:1007C0005DE3C701B6010E94460D0E94B30D2CEEF9
:1007D00034E847E959E30E94460D9B01AC01C5018D
:1007E000B4010E94CC099B01AC01C701B6010E9473
:1007F000CC09FF90EF90DF90CF90BF90AF909F908B
:100800008F907F906F905F904F9008958F929F92FE
:10081000AF92BF92CF92DF92EF92FF926B017C0179
:10082000CA01B9012AE534EC41EF54E40E94460DB7
:100830009B01AC016BE774E18AEF92E40E94CB0963
:100840004B015C012EE233E74AEB5BE3C701B601E3
:100850000E94CB096B017C0125E33AEF4EE85CE393
:10086000C501B4010E94460D0E94B30D2CE831EA87
:100870004CE95BE30E94460D9B01AC01C701B60148
:100880000E94CB09FF90EF90DF90CF90BF90AF9088
:100890009F908F9008958F929F92AF92BF92CF9228
:1008A000DF92EF92FF926B017C012DE73CEF4FE26C
:1008B00054E30E94460D2EE63FE045E55CE30E94CE
:1008C000CC094B015C0121E23FE247E055E3C7015F
:1008D000B6010E94460D9B01AC01C701B6010E9402
:1008E000460D9B01AC01C501B4010E94CB099B01DF
:1008F000AC01C701B6010E94460D9B01AC016CEA38
:1009000073E88BEB91E40E94CB09FF90EF90DF90AE
:10091000CF90BF90AF909F908F9008958F929F92AD
:10092000AF92BF92CF92DF92EF92FF924B015C01A8
:10093000CA01B90125E33AEF4EE85CE30E94460D97
:100940000E94B30D6B017C0125E33AEF4EE85CE3B6
:10095000C501B4010E94460D0E94B30D9B01AC017C
:10096000C701B6010E94460D0E94380A21EE3EE200
:1009700045E652E40E94460DFF90EF90DF90CF9045
:10098000BF90AF909F908F9008958F929F92AF925B
:10099000BF92CF92DF92EF92FF920E94480325E32D
:1009A0003AEF4EE85CE30E94460D6B017C010E9429
:1009B000CA0A29E633EE48E85CE30E94460D9B0133
:1009C000AC0166E974E080E89FE30E94CB094B012B
:1009D0005C01A7019601C701B6010E94CC090E94E3
:1009E000CA0A27EF3CEC42E159E30E94460D9B0105
:1009F000AC01C501B4010E94CB09FF90EF90DF90DC
:100A0000CF90BF90AF909F908F9008958F929F92BC
:100A1000AF92BF92CF92DF92EF92FF926B017C0177
:100A200049015A0120E030E040E85FEB0E94390DB7
:100A300018160CF043C02FE135E843EA50E4C70133
:100A4000B6010E94CC099B01AC016DEC7CEC84E208
:100A500091E40E94CF0A9B01AC01C701B6010E943C
:100A6000CC0925E33AEF4EE85CE30E94460D0E9474
:100A7000050E9B01AC0160E77EEC88E89CE30E94D8
:100A8000CF0A6B017C0120E030E040E85FE3C50164
:100A9000B4010E94CB092FE632E143E85AE30E94F9
:100AA000460D20E030E040E85FE30E94CC099B0166
:100AB000AC01C701B6010E94460D03C060E070E0C2
:100AC000CB01FF90EF90DF90CF90BF90AF909F90C1
:100AD0008F9008952F923F924F925F926F927F92E4
:100AE0008F929F92AF92BF92CF92DF92EF92FF923E
:100AF0000F931F93CF93DF93CDB7DEB76897CDBF2A
:100B0000DEBF8091083C082F880F110B40910C3CF0
:100B100060910B3C8091093C90910A3C50E070E060
:100B20000E9411021801280E311CC090103CD12CDB
:100B3000E0900F3CF12C00910E3C10E020910D3C18
:100B400030E02219330940910C3C50E060910B3C9D
:100B500070E08091093C90910A3C0E94620224E678
:100B600031EA45E15AE40E94CB0920E03DEA4EE03B
:100B700057E40E94CF0A69837A838B839C830E9407
:100B800048036B017C0129813A814B815C810E9481
:100B900073032B013C0121ED36EF4EE959E36981E6
:100BA0007A818B819C810E94460D25EC30EA4CE0D5
:100BB00057E40E94CC099B01AC0169817A818B8149
:100BC0009C810E94460D25EB3BE34CE853E40E94D8
:100BD000CC0920E030E044EB53E40E94A00B4B0131
:100BE0005C01A7019601C301B2010E94CB099B01E0
:100BF000AC01C501B4010E94CC0929813A814B8125
:100C00005C810E9406042B013C0169817A818B8101
:100C10009C810E944B049B01AC01C301B2010E9464
:100C20008E046D837E838F83988725EC30EA4CE0B9
:100C300057E469817A818B819C810E94460D25EB66
:100C40003BE34CE853E40E94CC094B015C01A30157
:100C500092010E94CB092B013C0125E33AEF4EE0C3
:100C60005DE3C501B4010E94460D0E94B30D22EF61
:100C700032ED4DE150E40E94460D9B01AC01C301F1
:100C8000B2010E94CC092B013C0125E33AEF4EE86A
:100C90005DE3C501B4010E94460D0E94B30D27E833
:100CA00036E149E55DE30E94460D9B01AC01C301BD
:100CB000B2010E94CB0920E030E040E850E40E94FD
:100CC000460D4B015C0180910D3C00910E3C10E003
:100CD0009CE3899F000D111D1124F0900F3C609141
:100CE000103C70E080E090E00E94430B20E030E098
:100CF00040E251E40E94CF0A2B013C016F2D70E0CD
:100D000080E090E00E94430BA30192010E94CC0975
:100D100020E030E040E752E40E94CF0A2B013C0182
:100D2000B801110F880B990B0E94430BA30192018C
:100D30000E94CC099B01AC01C501B4010E94CC0901
:100D40004B015C016091043C7091053C8091063C34
:100D50009091073C20E030E040E850E40E94460DCE
:100D60009B01AC01C501B4010E94CC094B015C019F
:100D7000B101330C880B990B0E94430B20E030E04B
:100D800040E752E40E94460D9B01AC01C501B4014D
:100D90000E94CB0920E030E040E752E40E94CF0AF5
:100DA00020E030E040E451E40E94CB0920E030E054
:100DB00040E751E40E94460D69877A878B879C87BC
:100DC000E0E0FCE3608171818281938125E33AEF69
:100DD0004EE85CE30E94460D4B015C0125E33AEFCF
:100DE0004EE85CE36D817E818F8198850E94460D7F
:100DF0006B017C0125E33AEF4EE85CE369857A8577
:100E00008B859C850E94460D6D877E878F87988B8A
:100E1000C501B4010E94B30D6D837E838F839887D3
:100E2000C701B6010E94B30D2B013C019B01AC012F
:100E30006D817E818F8198850E94460D698B7A8BAA
:100E40008B8B9C8BC501B4010E94CA0A4B015C01CB
:100E5000C701B6010E94CA0A6B017C019B01AC016B
:100E6000C501B4010E94460D6D8B7E8B8F8B988FD0
:100E70006D857E858F8598890E94CA0A9B01AC0189
:100E80006D897E898F89988D0E94460D9B01AC01EA
:100E900069897A898B899C890E94CC090E94380AC9
:100EA00021EE3EE245E652E40E94460D6093113C7D
:100EB0007093123C8093133C9093143C69817A8127
:100EC0008B819C810E94C5049B01AC016091113C07
:100ED0007091123C8091133C9091143C0E94060545
:100EE0002091113C3091123C4091133C5091143CA4
:100EF0000E94CC096093113C7093123C8093133C88
:100F00009093143C6D857E858F8598890E94B30DE2
:100F10009B01AC01C701B6010E94460D6B017C012B
:100F20006091113C7091123C8091133C9091143C63
:100F300025E33AEF4EE85CE30E94460D0E94CA0AA0
:100F40009B01AC01C701B6010E94CF0A6B017C0175
:100F50006091113C7091123C8091133C9091143C33
:100F600025E33AEF4EE85CE30E94460D0E94B30D84
:100F70009B01AC016D817E818F8198850E94460D19
:100F80009B01AC01C301B2010E94CB092B013C01C2
:100F90006091113C7091123C8091133C9091143CF3
:100FA00025E33AEF4EE85CE30E94460D0E94CA0A30
:100FB0009B01AC01C501B4010E94460D9B01AC012F
:100FC000C301B2010E94CF0A9B01AC01C701B60167
:100FD0000E94660A21EE3EE245E652E40E94460D7A
:100FE0006B017C0120E030E0A90169857A858B8561
:100FF0009C850E94390D181654F4A701960160E0F3
:1010000070E084EB93E40E94CB096B017C0120E04B
:1010100030E044EB53E4C701B6010E94A00B062F59
:10102000172F8D839983862F912FAD81B9816C0104
:101030007D0120E030E0A901602F712F8A2F9B2FC6
:101040000E94C50A882364F420E030E044EB53E4B6
:10105000602F712F8D8199810E94CC096B017C01D9
:10106000C092153CD092163CE092173CF092183C8E
:101070006896CDBFDEBFDF91CF911F910F91FF909A
:10108000EF90DF90CF90BF90AF909F908F907F9028
:101090006F905F904F903F902F90089588ED84BFA0
:1010A00083E0809360008091630080FDFCCF88ED39
:1010B00084BF109261008091630080FDFCCF80E2CC
:1010C00080930104E0E2F4E084E081838AE082839B
:1010D00088E0828B838B08950E944E080E94A409A9
:1010E0000E94B208789402C00E94DF018091280417
:1010F00081FFFACFFBCFAC0183709927892BA1F434
:101100009A013695279536952795ABE7B4E10E946D
:10111000E1119695879564E6689F9001699F300D6F
:10112000112442175307D1F49A01329522952F705A
:1011300023273F702327AEE3BAE00E94E11120E9A4
:1011400031E0BC01629FC001639F900D729F900DC2
:1011500011244817590721F481E0089581E008958A
:1011600080E00895809141018111FCCFE0E4F1E03D
:1011700083E0878389E2808381E0828382E19AE74A
:101180008287938708951F920F920FB60F921124B2
:101190003F924F925F926F927F928F929F92AF9207
:1011A000BF92CF92DF92EF92FF920F931F932F93F4
:1011B0003F934F935F936F937F938F939F93AF93DF
:1011C000BF93CF93DF93EF93FF9381E0809343012D
:1011D0008091280481FF96C080E2809307040E94DA
:1011E0006A05C0E0DCE318858C809D80AE80BF80FE
:1011F000C880D980EA80FB8049895A896B897C89BB
:101200008D899E89AF89B88D38884F845E846D84BE
:101210007C840B8529853A85E12F012E000CFF0B7C
:10122000FF931F93BF92AF929F928F92FF92EF9284
:10123000DF92CF927F936F935F934F93BF93AF9360
:101240009F938F931F923F921F924F921F925F9294
:101250001F926F921F927F921F920F933F932F9333
:101260008CEF91EB9F938F930E94D71388898F5FA8
:10127000888B88892DB73EB72E5D3F4F2DBF3EBF6F
:10128000843108F43FC0FE01188A8F858F5F8F87F5
:101290008F858C33B8F11F868E858F5F8E878E8504
:1012A0008C3380F11E868D858F5F8D878D8588318B
:1012B00048F11D868C858F5F8C87AB85B0E0AA5C7A
:1012C000BD44CC918385823041F48091093C90915A
:1012D0000A3C0E947B088111CDE180910C3CC8172B
:1012E00088F4E0E0FCE381E0848783858F5F838777
:1012F00083858D3038F081E08387818592850196E2
:1013000081879287FF91EF91DF91CF91BF91AF914C
:101310009F918F917F916F915F914F913F912F910D
:101320001F910F91FF90EF90DF90CF90BF90AF9003
:101330009F908F907F906F905F904F903F900F9015
:101340000FBE0F901F901895E0E0F8E080E490E069
:101350008087918782EC868383E0878389E19CE3A1
:1013600080932C3C90932D3C08959091040895FF18
:10137000FCCF8093020808950E94B50980E090E0B8
:10138000089580E880930408809104088823E4F796
:101390008091000808955058BB27AA270E94E309AE
:1013A0000C94D30C0E949A0C38F00E94A10C20F0EF
:1013B00039F49F3F19F426F40C945C0C0EF4E0957C
:1013C000E7FB0C942D0CE92F0E94F80C58F3BA1788
:1013D000620773078407950720F079F4A6F50C944B
:1013E000320D0EF4E0950B2EBA2FA02D0B01B90192
:1013F00090010C01CA01A0011124FF27591B99F08B
:10140000593F50F4503E68F11A16F040A22F232F96
:10141000342F4427585FF3CF469537952795A795E6
:10142000F0405395C9F77EF41F16BA0B620B730B8D
:10143000840BBAF09150A1F0FF0FBB1F661F771FFE
:10144000881FC2F70EC0BA0F621F731F841F48F4B3
:10145000879577956795B795F7959E3F08F0B0CF3C
:101460009395880F08F09927EE0F97958795089523
:101470009F939F77EEE389379E0728F4ECE7F0E02F
:101480000E94860C0CC00E94E90B9058A2EA2AED3B
:101490003FE049EC5FE30E94E3090E94D30C0F9008
:1014A00007FC905808950E949A0C60F080E891E043
:1014B00009F49EEF0E94A10C28F040E851E071F47D
:1014C0005EEF0CC00C945C0C0C94320DE92FE078AC
:1014D0000E94F80C40F3092E052AB1F326173707AE
:1014E0004807590738F00E2E07F8E02569F0E02587
:1014F000E0640AC0EF6307F8009407FADB01B90162
:101500009D01DC01CA01AD01EF930E94E60A0E9431
:10151000D30C0E94960A5F91552339F02BED3FE0E2
:1015200049E450FD49EC0C94CC090895DF93DD2784
:10153000B92FBF7740E85FE31616170648075B0729
:1015400018F4D92F0E943E0D9F938F937F936F9332
:101550000E94010EE0E9F0E00E945F0C0E94D30CB3
:101560002F913F914F915F910E94590DDD2351F0D2
:101570009058A2EA2AED3FE049EC5FE3D0785D277E
:101580000E94E309DF910C94D30C0E94090C08F42B
:1015900081E008950E94AA0CE3950C94E40C0E944B
:1015A000E30A0C94D30C0E94A10C58F00E949A0CF0
:1015B00040F029F45F3F29F00C942D0C51110C944C
:1015C000330D0C945C0C0E94F80C68F39923B1F372
:1015D000552391F3951B550BBB27AA276217730759
:1015E000840738F09F5F5F4F220F331F441FAA1FED
:1015F000A9F335D00E2E3AF0E0E832D091505040A9
:10160000E695001CCAF72BD0FE2F29D0660F771F56
:10161000881FBB1F261737074807AB07B0E809F03C
:10162000BB0B802DBF01FF2793585F4F3AF09E3FC1
:10163000510578F00C942D0C0C94330D5F3FE4F3BE
:10164000983ED4F3869577956795B795F7959F5F04
:10165000C9F7880F911D9695879597F90895E1E050
:10166000660F771F881FBB1F621773078407BA07AF
:1016700020F0621B730B840BBA0BEE1F88F7E0950A
:101680000895E89409C097FB3EF490958095709575
:1016900061957F4F8F4F9F4F9923A9F0F92F96E9BE
:1016A000BB279395F695879577956795B795F11133
:1016B000F8CFFAF4BB0F11F460FF1BC06F5F7F4FD0
:1016C0008F4F9F4F16C0882311F096E911C07723E2
:1016D00021F09EE8872F762F05C0662371F096E8EB
:1016E000862F70E060E02AF09A95660F771F881FBA
:1016F000DAF7880F9695879597F908950E941A0D45
:1017000090F09F3748F4911116F00C94330D60E07F
:1017100070E080E89FEB089526F41B16611D711D93
:10172000811D0C94330C0C944E0C0E949A0C20F0EA
:1017300019F00E94A10C50F40C945C0C0C94330D25
:10174000E92F0E94F80C88F35523B1F3E7FB6217E9
:10175000730784079507A8F189F3E92FFF278823EA
:101760002AF03197660F771F881FDAF7952F5527D4
:10177000442332F091505040220F331F441FD2F7C0
:10178000BB27E91BF50B621B730B840BB109B1F28C
:1017900022F4620F731F841FB11D31972AF0660F68
:1017A000771F881FBB1FEFCF9150504062F041F070
:1017B000882332F0660F771F881F91505040C1F781
:1017C00093950C944E0C8695779567959F5FD9F706
:1017D000F7CFDF93CF931F930F938B01EC01EDEBCA
:1017E000F0E00E945F0C0E94D30C9801AE018B01C7
:1017F000EC0160E070E080E89FE30E94CB090E946A
:10180000C10D9801AE010F911F91CF91DF910C9402
:10181000590D990F0008550FAA0BE0E8FEEF1616B8
:101820001706E807F907C0F012161306E407F507D4
:1018300098F0621B730B840B950B39F40A2661F048
:10184000232B242B252B21F408950A2609F4A140EB
:10185000A6958FEF811D811D089597F99F6780E8F8
:1018600070E060E00895882371F4772321F09850A8
:10187000872B762F07C0662311F499270DC090514E
:10188000862B70E060E02AF09A95660F771F881F1C
:10189000DAF7880F9695879597F908959F3F31F06D
:1018A000915020F4879577956795B795880F911D8E
:1018B0009695879597F908959FEF80EC0895DF93AB
:1018C000CF931F930F93FF92EF92DF927B018C01D6
:1018D000689406C0DA2EEF010E94590DFE01E894CB
:1018E000A5912591359145915591A6F3EF010E945F
:1018F000E309FE019701A801DA9469F7DF90EF9000
:10190000FF900F911F91CF91DF9108959F938F9337
:101910007F936F93FF93EF939B01AC010E94460D61
:10192000EF91FF910E945F0C2F913F914F915F913A
:101930000C94460D00240A9416161706180609067C
:10194000089500240A941216130614060506089535
:101950000C945C0C0E94000DD8F3E894E0E0BB27E7
:101960009F57F0F02AED3FE049EC06C0EE0FBB0FA9
:10197000661F771F881F28F0B23A62077307840733
:1019800028F0B25A620B730B840BE3959A9572F7A9
:10199000803830F49A95BB0F661F771F881FD2F7E7
:1019A00090480C94500C092E0394000C11F48823D9
:1019B00052F0BB0F40F4BF2B11F460FF04C06F5F07
:1019C0007F4F8F4F9F4F0895EF93E0FF07C0A2EA2C
:1019D0002AED3FE049EC5FEB0E94E3090E94D30C43
:1019E0000F90039401FC9058E5EEF0E00C94860C07
:1019F00057FD9058440F551F59F05F3F71F04795C0
:101A0000880F97FB991F61F09F3F79F087950895A4
:101A1000121613061406551FF2CF4695F1DF08C0C3
:101A2000161617061806991FF1CF869571056105E0
:101A3000089408950E94000DA0F0BEE7B91788F43D
:101A4000BB279F3860F41616B11D672F782F8827A3
:101A5000985FF7CF869577956795B11D93959639E1
:101A6000C8F30895E894BB2766277727CB0197F939
:101A700008950E94090C08F48FEF08959B01AC01B2
:101A800060E070E080E89FE30C94CF0A0E94590D5B
:101A90000C94D30C0E949A0C38F00E94A10C20F0F8
:101AA000952311F00C942D0C0C945C0C11240C94C7
:101AB000330D0E94F80C70F3959FC1F3950F50E021
:101AC000551F629FF001729FBB27F00DB11D639FF0
:101AD000AA27F00DB11DAA1F649F6627B00DA11D96
:101AE000661F829F2227B00DA11D621F739FB00D3C
:101AF000A11D621F839FA00D611D221F749F3327AC
:101B0000A00D611D231F849F600D211D822F762F44
:101B10006A2F11249F5750409AF0F1F088234AF021
:101B2000EE0FFF1FBB1F661F771F881F915050408D
:101B3000A9F79E3F510580F00C942D0C0C94330DA9
:101B40005F3FE4F3983ED4F3869577956795B79514
:101B5000F795E7959F5FC1F7FE2B880F911D96952E
:101B6000879597F908959F930E94AA0C0F9007FC00
:101B7000EE5F0C94E40C19F416F40C945C0C0C94C9
:101B80004E0C0E94000DB8F39923C9F3B6F39F578A
:101B9000550B87FF0E942A0E0024A0E640EA900120
:101BA00080585695979528F4805C660F771F881F9C
:101BB00020F026173707480730F4621B730B840B9D
:101BC000202931294A2BA6951794079420253125E1
:101BD0004A2758F7660F771F881F20F02617370708
:101BE000480730F4620B730B840B200D311D411D2F
:101BF000A09581F7B901842F9158880F9695879504
:101C000008959B01AC010C94460DDF93D92F0E94DF
:101C1000AA0CE695D7952AED3FE049E45FE3B33A95
:101C20006207730784079507D7953AF0A2EA49EC53
:101C300090680E94E3090E94D30CE3E0F1E00E9467
:101C4000860CDD0F13F00E943E0DDD0F0BF4905853
:101C5000DF91089591505040660F771F881FD2F78B
:101C60000895A0E1B0E0E7E3FEE00C94F0117C0100
:101C70001B016A01FC0116821782838181FF44C324
:101C80009E012F5F3F4F3901F7019381F10193FDD1
:101C9000859193FF81911F01882309F431C3853217
:101CA00039F493FD859193FF81911F01853239F4B9
:101CB000B70190E00E949B1356016501E5CF10E04B
:101CC000512C912CFFE1F915D8F08B3279F038F4D2
:101CD000803279F08332A1F4F92DF0612EC08D327B
:101CE00061F0803369F4292D21602DC0392D3260D7
:101CF000932E892D8460982E2AC0E92DE86015C0A6
:101D000097FC2DC020ED280F2A3088F496FE06C0DF
:101D10003AE0139F200D1124122F19C08AE0589E1B
:101D2000200D1124522EE92DE0629E2E10C08E321D
:101D300031F496FCE5C2F92DF0649F2E08C08C3674
:101D400021F4292D2068922E02C0883641F4F10139
:101D500093FD859193FF81911F018111B3CF9BEB7F
:101D6000980F933020F4992D9061805E07C09BE915
:101D7000980F933008F066C1992D9F7E96FF16E06C
:101D80009F73992E853619F49064992E08C0863673
:101D900021F4392F3068932E02C01111115097FE93
:101DA00007C01C3350F444244394410E27E00BC079
:101DB000183038F027E017E005C027E09CE3492EF3
:101DC00002C0212F412C560184E0A80EB11CF6015F
:101DD0006081718182819381042DA3010E94791217
:101DE0006C01F981FC87F0FF02C0F3FF06C091FC93
:101DF00006C092FE06C000E205C00DE203C00BE281
:101E000001C000E08C858C7019F001115AC29BC290
:101E100097FE10C04C0CFC85F4FF04C08A8181330E
:101E200009F44A94141474F528E0241578F588E030
:101E3000482E2CC096FC2AC0812F90E08C159D0561
:101E40009CF03CEFC3163FEFD30674F0892D8068F9
:101E5000982E0AC0E2E0F0E0EC0FFD1FE10FF11D4B
:101E60008081803319F411501111F4CF97FE0EC008
:101E700044244394410E812F90E0C816D9062CF4D7
:101E80001C1904C04424439401C010E097FE06C00E
:101E90001C141D0434F4C601019605C085E090E0D1
:101EA00002C081E090E001110196112331F0212F51
:101EB00030E02F5F3F4F820F931F252D30E08217B8
:101EC000930714F4581A01C0512C892D897049F4D4
:101ED000552039F0B70180E290E00E949B135A949C
:101EE000F7CF002329F0B701802F90E00E949B13C9
:101EF00093FC09C0552039F0B70180E390E00E94BF
:101F00009B135A94F7CF97FE4CC04601D7FE02C0F0
:101F1000812C912CC60188199909F301E80FF91F4A
:101F2000ED87FE879601241931092F87388B012F01
:101F300010E01195019511093FEF8316930629F4DE
:101F4000B7018EE290E00E949B13C814D9044CF0B4
:101F50008F8598898815990524F4ED85FE85818102
:101F600001C080E3F1E08F1A91082D853E852F5F37
:101F70003F4F2D873E87801691062CF0B70190E0E9
:101F80000E949B13D9CFC814D90441F49A81963387
:101F900020F4953319F43C8534FF81E3B70190E0D8
:101FA0004EC08A81813319F09C859F7E9C87B70142
:101FB00090E00E949B13111105C094FC18C085E6A7
:101FC00090E017C0B7018EE290E00E949B131E5F65
:101FD00082E001E0080FF301E80FF11D8081B701F5
:101FE00090E00E949B13802F0113F3CFE6CF85E48E
:101FF00090E0B7010E949B13D7FC06C0C114D10426
:1020000041F4EC85E4FF05C0D194C194D1088DE280
:1020100001C08BE2B70190E00E949B1380E32AE0AD
:10202000C216D1042CF08F5FFAE0CF1AD108F7CF97
:10203000B70190E00E949B13B701C601C0960E94B1
:102040009B1354C1833631F0833779F0833509F01F
:1020500056C020C0560132E0A30EB11CF6018081AB
:10206000898301E010E0630112C05601F2E0AF0E77
:10207000B11CF601C080D18096FE03C0612F70E0D4
:1020800002C06FEF7FEFC6010E9461138C01F92D32
:10209000FF7714C0560122E0A20EB11CF601C080E9
:1020A000D18096FE03C0612F70E002C06FEF7FEF1A
:1020B000C6010E9451138C01F92DF0689F2EF3FD8B
:1020C0001AC0852D90E008171907A8F4B70180E21F
:1020D00090E00E949B135A94F4CFF60197FC8591EF
:1020E00097FE81916F01B70190E00E949B13511000
:1020F0005A94015011090115110579F7F7C084367A
:1021000011F0893661F5560197FE09C024E0A20E50
:10211000B11CF60160817181828193810AC0F2E075
:10212000AF0EB11CF60160817181072E000C880B87
:10213000990BF92DFF769F2E97FF09C090958095FA
:10214000709561957F4F8F4F9F4FF0689F2E2AE0CB
:1021500030E0A3010E940614C82EC6183FC0092D06
:10216000853721F40F7E2AE030E01DC0097F8F36CD
:1021700091F018F4883559F0C3C0803719F08837CA
:1021800011F0BEC0006104FF09C0046007C094FEE6
:1021900008C0066006C028E030E005C020E130E05D
:1021A00002C020E132E0560107FF09C084E0A80E1A
:1021B000B11CF601608171818281938108C0F2E0D7
:1021C000AF0EB11CF6016081718180E090E0A30147
:1021D0000E940614C82EC6180F77902E96FE0BC0CC
:1021E000092D0E7FC11650F494FE0AC092FC08C05F
:1021F000092D0E7E05C0DC2C092D03C0DC2C01C08E
:10220000D12E04FF0DC0FE01EC0DF11D8081803345
:1022100011F4097E09C002FF06C0D394D39404C010
:10222000802F867809F0D39403FD11C000FF06C00B
:102230001C2DD51480F4150D1D190DC0D51458F49E
:10224000B70180E290E00E949B13D394F7CFD5149E
:1022500010F45D1801C0512C04FF10C0B70180E3D9
:1022600090E00E949B1302FF17C001FD03C088E7A6
:1022700090E002C088E590E0B7010CC0802F86781E
:1022800059F001FF02C08BE201C080E207FD8DE240
:10229000B70190E00E949B13C11638F4B70180E3A8
:1022A00090E00E949B131150F7CFCA94F301EC0DFC
:1022B000F11D8081B70190E00E949B13C110F5CF02
:1022C00015C0F4E0F51560F584E0581A93FE1FC0C0
:1022D000011127C02C8523FF2AC006E211E0392D09
:1022E0003071932EF8018491811124C0552009F496
:1022F000E4CCB70180E290E00E949B135A94F6CFA1
:10230000F7018681978126C08FEF9FEF23C0B70129
:1023100080E290E00E949B135A945110F8CFD8CFDE
:10232000512CB701802F90E00E949B13D3CF0AE27B
:1023300011E0D5CF91108052B70190E00E949B131D
:102340000F5F1F4FCFCF23E0251510F483E0BDCFE3
:10235000512CC0CF6096E2E10C94091297FB072E36
:1023600016F4009407D077FD09D00E94211207FCD3
:1023700005D03EF4909581959F4F08957095619595
:102380007F4F0895052E97FB1EF400940E94D911EB
:1023900057FD07D00E94351207FC03D04EF40C9471
:1023A000D91150954095309521953F4F4F4F5F4F34
:1023B000089590958095709561957F4F8F4F9F4FB1
:1023C0000895A29FB001B39FC001A39F700D811D0E
:1023D0001124911DB29F700D811D1124911D08952E
:1023E0002F923F924F925F926F927F928F929F9225
:1023F000AF92BF92CF92DF92EF92FF920F931F9313
:10240000CF93DF93CDB7DEB7CA1BDB0BCDBFDEBFEB
:1024100009942A88398848885F846E847D848C84F6
:102420009B84AA84B984C884DF80EE80FD800C81FF
:102430001B81AA81B981CE0FD11DCDBFDEBFED01B9
:102440000895AA1BBB1B51E107C0AA1FBB1FA617FB
:10245000B70710F0A61BB70B881F991F5A95A9F74D
:1024600080959095BC01CD010895A1E21A2EAA1B7A
:10247000BB1BFD010DC0AA1FBB1FEE1FFF1FA21734
:10248000B307E407F50720F0A21BB30BE40BF50B31
:10249000661F771F881F991F1A9469F760957095BA
:1024A000809590959B01AC01BD01CF0108956627F1
:1024B00077270C941117FC0188279927E89421911C
:1024C0002032E9F3293010F02E30C8F32B3241F0DE
:1024D0002D3239F4689404C00E949313820F911D29
:1024E000219120532A30C0F31EF4909581959F4F7F
:1024F0000895283008F027E03327DA01990F311DBD
:1025000087FD916000966105710539F432602E5F98
:102510003D9330E32A95E1F708959F3F30F08038EE
:102520007105610509F03C5F3C5F3D93913008F017
:102530008068911DDF93CF931F930F93FF92EF92CB
:10254000192F987F9695E92F96959695E90FFF2775
:10255000E857FE4F99273327EE24FF24A701E70110
:1025600005900894079428F4360FE71EF81E491FBB
:10257000511D660F771F881F991F0694A1F70590BC
:10258000079428F4E70EF81E491F561FC11D770F48
:10259000881F991F661F0694A1F70590079428F4D9
:1025A000F80E491F561FC71FD11D880F991F661FA0
:1025B000771F0694A1F70590079420F4490F561F42
:1025C000C71FD81F990F661F771F881F0694A9F78A
:1025D00084911095177041F0D695C79557954795FA
:1025E000F794E7941A95C1F7EEE2F1E0689415903C
:1025F000159135916591959105907FE27395E1185C
:10260000F10A430B560BC90BD009C0F7E10CF11EC0
:10261000431F561FC91FD01D7EF4703311F48A95D5
:10262000E6CFE894015030F0080F0AF400270217B3
:1026300008F4202F2395022F7A3328F079E37D9335
:102640002A95E9F710C07D932A9589F60694979507
:102650006795379517951794E118F10A430B560BB8
:10266000C90BD00998F023957E9173957A3308F0C1
:1026700070E37C932013B8F77E9170617D9330F006
:10268000839571E37D9370E32A95E1F71124EF9030
:10269000FF900F911F91CF91DF91992787FD909522
:1026A0000895FC010590615070400110D8F78095A5
:1026B00090958E0F9F1F089548E25CE30E946C1373
:1026C0000895FC016150704001900110D8F7809589
:1026D00090958E0F9F1F0895FA01A191B0810097E8
:1026E00019F41097E1F0CD01DC01CD010D9000202F
:1026F00011F4C00113C0FB012191222319F0201510
:10270000D9F7F3CFFB012191201519F41E921196F0
:1027100006C02223C1F70D900020A1F7D001FA01D5
:10272000A193B08308957AE0979F902D879F802D85
:10273000910D112408950F931F93CF93DF93FB0105
:10274000238121FD03C08FEF9FEF2CC022FF16C015
:1027500046815781248135814217530744F4A08173
:10276000B1819D012F5F3F4F208331838C93268160
:1027700037812F5F3F4F2683378314C08B01EC01D5
:10278000FB010084F185E02D0995892BE1F6D80144
:1027900016968D919C911797019616968D939C9302
:1027A0001797CE01DF91CF911F910F910895A0E06F
:1027B000B0E0EDEDF3E10C940012AE014B5F5F4F22
:1027C000FA0161917191AF0180912C3C90912D3C67
:1027D0000E94310EE2E00C941912AEE0B0E0E3EF9B
:1027E000F3E10C94001285E08C838B899C898983AA
:1027F0009A83AE01495E5F4F6D897E89CE01019655
:102800000E9400162E96E2E00C941912FA01AA27F3
:10281000283051F1203181F1E8946F936E7F6E5F23
:102820007F4F8F4F9F4FAF4FB1E03ED0B4E03CD0D1
:10283000670F781F891F9A1FA11D680F791F8A1FB4
:10284000911DA11D6A0F711D811D911DA11D20D01B
:1028500009F468943F912AE0269F11243019305DD5
:102860003193DEF6CF010895462F4770405D4193C6
:10287000B3E00FD0C9F7F6CF462F4F70405D4A3313
:1028800018F0495D31FD4052419302D0A9F7EACFDB
:10289000B4E0A6959795879577956795BA95C9F70A
:1028A00000976105710508959B01AC010A2E0694FD
:1028B0005795479537952795BA95C9F7620F731FB6
:1028C000841F951FA01D089520FD09C0FC0123FD54
:1028D00005C022FF02C07383628351834083089541
:1028E00044FD17C046FD17C0AB01BC01DA01FB0176
:1028F000AA0FBB1FEE1FFF1F1094D1F74A0F5B1FDB
:102900006E1F7F1FCB01BA01660F771F881F991FAB
:1029100009C033E001C034E0660F771F881F991F9C
:102920003150D1F7620F711D811D911D08950F93D4
:102930001F93CF93DF938C01C8010E948B18EC0189
:1029400097FD08C00E945F18892BB1F7B801CE012E
:102950000E94C918CE01DF91CF911F910F91089568
:102960008F929F92AF92BF92EF92FF920F931F931D
:10297000CF93DF938C01D62F7A01B22E0E948B1851
:102980009C0133272B32310531F02D32310561F4B2
:102990008B2D8068B82ED15011F480E068C0C8013A
:1029A0000E948B1897FDF9CFCB2DCD7F2B2D207357
:1029B00009F58033F9F4AA24AA94AD0E09F443C0B2
:1029C000C8010E948B1897FD3EC09C012F7D3327C4
:1029D0002835310549F4C264D250A9F1C8010E94DA
:1029E0008B1897FF07C02FC0B6FE02C0C26001C09F
:1029F000C261DA2D812C912C540120ED280F283052
:102A000080F0C4FF04C0B8010E94C91819C02A3060
:102A100040F0C6FFF8CF2F7D3FEE320F363098F7EB
:102A200027504C2FC501B4010E9470144B015C016A
:102A3000C260D15059F0C8010E948B1897FFDDCFBA
:102A4000C1FD04C0AACF812C912C5401C7FF08C03E
:102A5000B094A09490948094811C911CA11CB11CF2
:102A60002C2FB501A401C7010E94641481E0DF91FD
:102A7000CF911F910F91FF90EF90BF90AF909F90DB
:102A80008F900895A0E2B0E0E8E4F5E10C94F31132
:102A90005C01962E7A01F9018E010F5F1F4F6801CC
:102AA00080E2D8011D928A95E9F7D50113968C90A2
:102AB00080E090E0612C712C30E061E070E083FCFC
:102AC000259183FE21918F01522E211103C080E0B8
:102AD00090E092C02E3511F4009751F1432F50E051
:102AE000481759073CF42D3559F12D3219F4772048
:102AF00009F103C0772009F46AC0452D4695469533
:102B00004695D601A40FB11D452D47708B0102C01B
:102B1000000F111F4A95E2F7A8015C91452B4C93D9
:102B2000651459F0561410F45394E7CF5A94E5CF36
:102B300031E004C07724739401C0712C0196BFCF9B
:102B4000772019F08E8180628E83311103C0882432
:102B5000839417C0F6019E012F5D3F4F80818095C1
:102B600081932E173F07D1F7F2CFE114F10429F03A
:102B7000D7018C93F70131967F019A94812C99208B
:102B8000F9F0C5010E948B1897FD18C0FC01FF27C2
:102B900023E0F595E7952A95E1F7EC0DFD1D2081E1
:102BA00030E0AC014770552702C0359527954A950E
:102BB000E2F720FDDACFB5010E94C918811087CF56
:102BC000E114F10411F0D7011C92C80115C0422F85
:102BD000469546954695D601A40FB11D422F4770E4
:102BE0008B0102C0000F111F4A95E2F7A8015C910A
:102BF000452B4C93622EA2CFA096EFE00C940C12C2
:102C0000A0E0B0E0E6E0F6E10C94F3116C01EB011A
:102C10005A01FC0116821782512CF601E380FE0155
:102C2000E3FC8591E3FE8191182FEF01882309F4DD
:102C3000EEC090E00E945F18892B21F0C6010E942F
:102C40009714EBCF153241F4FE01E3FC1591E3FE3E
:102C50001191EF01153281F4C6010E948B1897FD86
:102C6000D4C0412F50E09C01332724173507A9F227
:102C7000B6010E94C918CBC01A3239F4E3FC159191
:102C8000E3FE1191EF0101E001C000E0F12C20ED25
:102C9000210F2A3080F402606F2D70E080E090E018
:102CA00040E20E947014F62EFE01E3FC1591E3FE53
:102CB0001191EF01ECCF01FF03C0F11003C0A7C0D9
:102CC000FF24FA94183619F01C3651F010C0FE019A
:102CD000E3FC1591E3FE1191EF01183641F4086011
:102CE0000460FE01E3FC1591E3FE1191EF01112355
:102CF00009F48DC0612F70E088E292E00E946818AC
:102D0000892B09F484C000FD07C0F5018080918003
:102D1000C50102965C0102C0812C912C1E3651F433
:102D2000F6014681578160E070E0202FC4010E94C7
:102D3000641473CF1336A9F401FD02C0FF24F39489
:102D4000C6010E948B1897FD60C08114910429F080
:102D5000F4018083C40101964C01FA94F110F0CF84
:102D600050C01B3559F49E01A4016F2DC6010E946D
:102D70004215EC01892B09F044C03EC0C6010E94F7
:102D8000971497FD42C01F3661F128F4143639F1CB
:102D9000193651F128C0133771F0153701F123C0EE
:102DA0008114910429F0F4016082C40101964C0160
:102DB000FA94FF2071F0C6010E948B183C0197FD28
:102DC00008C00E945F18892B59F3B601C3010E9405
:102DD000C91881149104A9F0F401108212C0006294
:102DE00003C0006101C00064202FA4016F2DC60143
:102DF0000E94B014811105C0F6018381807329F40B
:102E000006C000FD0ACF539408CF552019F0852D38
:102E100090E002C08FEF9FEFCDB7DEB7EFE00C94EC
:102E20000C12A0E0B0E0E7E1F7E10C94F611EC0140
:102E30006B016115710519F0FB01808391837E019F
:102E4000FFEFEF1AFF0A0881802F90E00E945F18C1
:102E5000892B11F0E701F3CF0D3239F47E0182E0C6
:102E6000E80EF11C098111E008C00B3229F47E0143
:102E700092E0E90EF11C098110E0E701219743E09F
:102E800050E06CE372E0CE010E947318892BC1F40C
:102E9000239645E050E067E372E0CE010E9473188C
:102EA000892B09F42596C114D10419F0F601C083C9
:102EB000D1831111F6C060E070E080E89FE7FAC0AE
:102EC00043E050E064E372E0CE010E947318892B66
:102ED00059F4C114D10409F4E9C0F2E0EF0EF11C79
:102EE000F601E082F182E2C020E030E0A901C0E01A
:102EF000D0E0F70180EDA82EA00E89E08A1530F110
:102F0000912F9260B92E812F887012FF04C0811119
:102F100024C0219622C081112197A5E0B0E00E9433
:102F2000E518DC01CB01880F991FAA1FBB1F9C016C
:102F3000AD012A0D311D411D511D283989E9380780
:102F4000480789E1580748F0166006C09EEFA912AD
:102F50000AC013FD40C01860B12E8FEFE81AF80ABE
:102F600000811B2DC6CF802F8F7D8534A1F58081F8
:102F70008D3211F4106106C08B3221F0319661E080
:102F800070E004C08181329662E070E080538A3044
:102F900018F0E61BF70B1FC060E070E060389CE0A3
:102FA00079075CF4DB01AA0FBB1FAA0FBB1F6A0FD6
:102FB0007B1F660F771F680F711D3196DF01119718
:102FC0008C9180538A3050F314FF03C07195619542
:102FD0007109C60FD71F11FF08C0C114D10429F011
:102FE000CF010197F60180839183CA01B9010E9444
:102FF000410B212F2370233019F04B015C0106C0D7
:103000004B015C01B7FAB094B7F8B09420E030E01F
:10301000A901C501B4010E94C50A882309F43EC074
:10302000D7FF06C0D195C195D10903E512E002C0D2
:103030000BE612E06801F8E1CF1AD10890E2E92E20
:10304000F12CCE15DF0574F0F801259135914591ED
:103050005491C501B4010E94460D4B015C01CE198B
:10306000DF09EFCF04501109F594E7940C151D0505
:1030700041F78A2D880F8B2D881F8F3F49F020E064
:1030800030E0A901C501B4010E94C50A811106C042
:1030900082E290E08093303C9093313CC501B401D2
:1030A00009C060E070E080E89FEF04C060E070E07D
:1030B00080EC9FE7CDB7DEB7ECE00C940F129111D6
:1030C0000C94E218803219F089508550C8F70895A1
:1030D000FC010590061621F00020D9F7C0010895E3
:1030E0003197CF010895FB01DC014150504088F039
:1030F0008D9181341CF08B350CF4805E65916134C8
:103100001CF06B350CF4605E861B611171F3990B3A
:103110000895881BFCCFCF93DF93EC012B8120FF18
:1031200033C026FF0AC02F7B2B838E819F8101969F
:103130008E839F838A8190E029C022FF0FC0E8819F
:10314000F9818081082E000C990B009719F42062F8
:103150002B831AC03196E883F9830EC0EA85FB857C
:10316000099597FF09C02B81019611F080E201C0FB
:1031700080E1822B8B8308C02E813F812F5F3F4FE0
:103180002E833F83992702C08FEF9FEFDF91CF916E
:103190000895FB01238120FF12C026FD10C08F3F40
:1031A0003FEF930761F082832F7D20642383268184
:1031B00037812150310926833783992708958FEF6E
:1031C0009FEF08959927882708950E94E111A59FF0
:1031D000900DB49F900DA49F800D911D1124089512
:0431E000F894FFCF91
:1031E4007C002534752532752532752532752532D6
:1031F40075253275253175003C25346425303264DB
:10320400253032642530326425303264253032640E
:103214002531647C25332E34667C25332E34667C3C
:1032240025332E34667C25332E34667C2532643E69
:0F3234000D0A001F1C1F1E1F1E1F1F1E1F1E1F07
:103243008C0A8CC244AA2243F5E8070C150F081E0A
:10325300003333154266662B430000000200000072
:0832630000BC0900000000009E
:00000001FF
